:10000000182883120313A5008A0125080F398207D7
:10001000553420345B3456345D340934493420344B
:100020005B346D3441345D340D340A3400340034B3
:100030008316031307108312071083160617B420C4
:10004000A420C830682183120313A201D720831291
:100050000313061B272883120313071489309F00FC
:100060009F14831203139F183128831203131E0851
:10007000A100A00183161E088312A0070318A10A7D
:100080002008A3002108A4001030A200031083124E
:100090000313A00DA10DA30DA40D031C5328313093
:1000A000A0070318A10A83120313A20B46282008F5
:1000B000A2002108A3000430A4002E14ED20093072
:1000C000BC208D30831203139F009F1483120313EF
:1000D0009F186628831203131E08A100A00183162F
:1000E0001E088312A0070318A10A2008A3002108F4
:1000F000A4001030A200031083120313A00DA10D61
:10010000A30DA40D031C88283130A0070318A10AF1
:1001100083120313A20B7B282008A2002108A3004E
:100120000330A4002E14ED200D30BC200A30BC207A
:100130000130682183120313071083120313061F73
:100140009D28013068212728831203179E141E154D
:100150001E168316031385140515051650309F00CF
:10016000893083129F000800831203171E100313A7
:10017000051483160510080083120313AF00051041
:100180000A30B00083120313B0080319D6281230C6
:10019000B10083120313B10BC92800000314AF0C84
:1001A000031C051003180514B003C22808008312AD
:1001B0000313A301831203132308220701208312D0
:1001C0000313A400A40803190800831203132408CE
:1001D000BC2083120313A30ADA2883120313AB0192
:1001E0002B30A5002E18FD28A31FFD282D30A500BB
:1001F000A309A209A20A0319A30A05308312031353
:10020000AC00831203132208B0002308B100AD0133
:100210001030AF0083120313B00DB10DAD0D0318F4
:1002200015290A302D02031C19290A3083120313E1
:10023000AD0283120313AF0B0A293030AD0725300E
:100240002C07840083132D0880002C0303194929EF
:10025000831203132208B0002308B100B20110304A
:10026000AF0083120313B00DB10DB20D03183C297A
:100270000A303202031C41290A3083120313B202EE
:10028000031483120313A20DA30DAF0B3129AC038A
:10029000012983120313AC01831203132408063CC3
:1002A0002C06031D55292C30BC2025308312031346
:1002B0002C07840083130008AD00AD080319080063
:1002C000831203132D08BC2083120313AC0A4C299C
:1002D00083120313A2000730831681002730831294
:1002E00003130107A3008312031323080106031D50
:0C02F000732983120313A20B6E2908006F
:02400E00D400DC
:00000001FF
