:10000000102883120313A5008A01250807398207E7
:10001000553420345B3456345D340D340A340034A6
:10002000831603130710831207108316061779200F
:100030006D2064302D2183120313A2019C208312B2
:100040000313061B1F288312031307149F14831224
:1000500003139F182728831203131E08A100A00171
:1000600083161E088312A0070318A10A2008A30004
:100070002108A4001030A200031083120313A00D66
:10008000A10DA30DA40D031C49283B30A0070318A4
:10009000A10A83120313A20B3C282108EA3CA10009
:1000A0002008603CA000031CA1032008A200210836
:1000B000A3000430A4002E14B2200D3081200A3099
:1000C000812001302D2183120313071083120313A3
:1000D000061F662801302D211F28831203171E15C5
:1000E00083160313051550309F00893083129F003B
:1000F0000800831203171E1003130514831605103E
:10010000080083120313AF0005100A30B0008312F9
:100110000313B00803199B281230B1008312031394
:10012000B10B8E2800000314AF0C031C051003183C
:100130000514B0038728080083120313A301831258
:10014000031323082207012083120313A400A40829
:100150000319080083120313240881208312031358
:10016000A30A9F2883120313AB012B30A5002E187E
:10017000C228A31FC2282D30A500A309A209A20AE4
:100180000319A30A053083120313AC00831203136F
:100190002208B0002308B100AD011030AF00831277
:1001A0000313B00DB10DAD0D0318DA280A302D027E
:1001B000031CDE280A3083120313AD0283120313DB
:1001C000AF0BCF283030AD0725302C0784008313C8
:1001D0002D0880002C0303190E2983120313220813
:1001E000B0002308B100B2011030AF008312031336
:1001F000B00DB10DB20D031801290A303202031CF3
:1002000006290A3083120313B20203148312031364
:10021000A20DA30DAF0BF628AC03C628831203135F
:10022000AC01831203132408063C2C06031D1A2973
:100230002C3081202530831203132C078400831374
:100240000008AD00AD0803190800831203132D0840
:10025000812083120313AC0A112983120313A20015
:100260000730831681002730831203130107A30090
:100270008312031323080106031D38298312031375
:06028000A20B3329080067
:02400E00D400DC
:00000001FF
