:10000000102883120313A5008A01250807398207E7
:10001000553420345B3456345D340D340A340034A6
:10002000831203171A109A141A111A1283169E13A8
:1000300083129A169A171E161E1783160313071497
:100040000715071250309F00993083129F008316C6
:10005000061472206430282183120313A201972012
:1000600083120313061B3028831203139F14831279
:1000700003139F183728831203131E08A100A00141
:1000800083161E088312A0070318A10A2008A300E4
:100090002108A4001030A200031083120313A00D46
:1000A000A10DA30DA40D031C59283130A00703187E
:1000B000A10A83120313A20B4C282008A2002108D6
:1000C000A3000430A4002E14AD200D307C200A3093
:1000D0007C200130282183120313061F6B28013076
:1000E00028213028831203171E109E1003130514B5
:1000F000831605108514080083120313AF00051042
:100100000A30B00083120313B00803199628123086
:10011000B10083120313B10B892800000314AF0C44
:10012000031C051003180514B0038228080083126D
:100130000313A30183120313230822070120831250
:100140000313A400A408031908008312031324084E
:100150007C2083120313A30A9A2883120313AB0192
:100160002B30A5002E18BD28A31FBD282D30A500BB
:10017000A309A209A20A0319A30A053083120313D3
:10018000AC00831203132208B0002308B100AD01B4
:100190001030AF0083120313B00DB10DAD0D031875
:1001A000D5280A302D02031CD9280A3083120313E4
:1001B000AD0283120313AF0BCA283030AD072530D0
:1001C0002C07840083132D0880002C0303190929B0
:1001D000831203132208B0002308B100B2011030CB
:1001E000AF0083120313B00DB10DB20D0318FC283C
:1001F0000A303202031C01290A3083120313B202AF
:10020000031483120313A20DA30DAF0BF128AC034B
:10021000C12883120313AC01831203132408063C84
:100220002C06031D15292C307C2025308312031346
:100230002C07840083130008AD00AD0803190800E3
:10024000831203132D087C2083120313AC0A0C299C
:1002500083120313A2000730831681002730831214
:1002600003130107A3008312031323080106031DD0
:0C027000332983120313A20B2E2908006F
:02400E00D400DC
:00000001FF
