:10000000442883120313AD00003003178F0003133D
:100010002D0C7F39223E03178D0003188F0A83169B
:1000200003178C170C1400000000831203132D1803
:100030001D2803170C087F390800831203170C0DC5
:100040000E0D08005039E5397310E23A743A6F37F3
:10005000203A6F10703969377410C43AF43CE33CAD
:100060006336E5060A00C32150293126A01EA012DE
:1000700075102000C43AF43CC33C633665103D1053
:10008000A53AA012A5060A008316031307128312CD
:10009000071283160617B2209520A3206430A621EC
:1000A00083120313A6010030D720831203139F1479
:1000B000831203139F185828831203131E08A000ED
:1000C00020089500061B552807162008A700A20146
:1000D0000830A600031083120313A20DA30DA70D71
:1000E000031C76286430A2070318A30A83120313A3
:1000F000A60B6A282308A400A5012408A100223029
:10010000A6002008D720303083120313A600210850
:10011000D7200130A6218312031307128312031381
:10012000061F8E280130A6215528831603130715B4
:10013000831203171E175030831603139F001930C4
:1001400083129F0008008316031387120430831262
:1001500092000C309700FF3083169200803083129B
:1001600095000800831203171E109E100313051438
:10017000831605108514080083120313AD000510C3
:100180000A30AE0083120313AE080319D6281230CA
:10019000AF0083120313AF0BC92800000314AD0C8A
:1001A000031C051003180514AE03C22808008312AF
:1001B0000313A700A80183120313280826070120B0
:1001C00083120313A900A9080319A5298312031395
:1001D0002908253A031D9D29A80A28082607012079
:1001E00083120313A9002908643A03190429113A58
:1001F00003191529173A03197D29013A0319922980
:10020000463A031997299A2983120313A71F0B292A
:100210002D30BC200D292030BC20803083120313E8
:100220002702031C1529A709A70A8312031327080D
:10023000AE00AF010830AD0083120313AE0DAF0D59
:1002400064302F02031C2929643083120313AF0288
:10025000031483120313AB0DAD0B1C2930302B0795
:10026000BC20831203132708AE00AC010830AD0098
:1002700083120313AE0DAC0D64302C02031C442911
:10028000643083120313AC0283120313AD0B3829BD
:100290002C08AE00AF010830AD0083120313AE0D81
:1002A000AF0D0A302F02031C5A290A3083120313A0
:1002B000AF02031483120313AB0DAD0B4D29303085
:1002C0002B07BC20831203132C08AE00AB010830AF
:1002D000AD0083120313AE0DAB0D0A302B02031CCD
:1002E00075290A3083120313AB0283120313AD0B7B
:1002F000692930302B07BC20A12983120313AA01DE
:100300000830831203132A020318A129A71F8B297F
:100310003130BC208D293030BC2083120313A70D4F
:10032000AA0A8029831203132708BC20A12925309B
:10033000BC20A1292130BC20A12983120313290844
:10034000BC2083120313A80ADB28080083120313BE
:10035000A60007308316810027308312031301079C
:10036000A7008312031327080106031DB129831276
:080370000313A60BAC290800E1
:02400E00D400DC
:00000001FF
