:100000000128831203179E019F01F030831603130A
:100010008700061206135120831203130616A0014F
:10002000083083120313200203181D2820083520EE
:10003000662083120313A00A1028831203130612EA
:10004000C0306620831203130616A0010830831205
:10005000031320020318332820084320662083124C
:100060000313A00A26280000332883120313A100DB
:100070008A0121088207483465346C346C346F344B
:10008000203477346F3483120313A1008A012108CE
:10009000820772346C3464342134203420342034A8
:1000A0002034283095208312031306123330662043
:1000B00032306620283066200C3066200130662001
:1000C00006306620831203130616080083120313FA
:1000D000A100A11F8711A11B8715211F0711211B3B
:1000E0000715A11E8710A11A8714211E0710211AB7
:1000F000071406130000061705309520831203131A
:10010000A11D8711A1198715211D07112119071597
:10011000A11C8710A1188714211C0710211807148F
:100120000613000006170530952883120313A2005A
:100130000230831681008312031381017D30831204
:1001400003130102031C9E2883120313A20B9B2896
:020150000800A5
:02400E00D400DC
:00000001FF
