:02000000AB282B
:10000800F000030E83120313A0000A08A1008A015E
:1000180085182F281C30A30083120313A30B102864
:1000280000001628083083120313A200831203135A
:10003800A20803192C28031085180314B30C1230D6
:10004800A30083120313A30B25280000A2031A2878
:100058008312031332140B108312031321088A002E
:10006800200E8300F00E700E090083120313AF00F8
:10007800003003178F0003132F0C7F395A3E0317E4
:100088008D0003188F0A831603178C170C140000B1
:100098000000831203132F18552803170C087F3903
:1000A8000800831203170C0D0E0D0800CD32EE3A2E
:1000B8003A10311620192C10B3060A002532801286
:1000C8006310CC2244182037EF3B3A104F33E60632
:1000D8000A00A531202645223110EE37771DA027CA
:1000E800EE060A00A531202645223110EE37771D8D
:1000F800A02766330D0580126310C23A743A6F3731
:10010800203B6136F532A034731D2000A53A0D0559
:1001180080126310CC2244182037EF3B3A104F2747
:100128000D0580126310D9377510ED3A733AA03176
:10013800E837EF396510E232F43BE5326E1DA0185E
:100148002C103216A0190D058012640500008312C8
:100158000313A601A70180219621A22164306A21F8
:1001680083120313A8010030C3212830B22283125E
:100178000313A7001030A8002708C3218312031314
:10018800321C35293308A50032102508313A0319E5
:10019800E328403A0319EB28433A0319F328453A70
:1001A8000319FB28443A03190329563A03190B2962
:1001B800513A03191329473A031922292F2983127F
:1001C800031307146530A8002508C32135298312B5
:1001D800031307101330A8002508C32135298312FB
:1001E800031387142630A8002508C3213529831254
:1001F800031387103830A8002508C3213529831236
:10020800031307152630A8002508C32135298312B2
:10021800031307113830A8002508C32135294B30AE
:1002280083120313A8002508C32160308312031327
:10023800A8000001061B0130C321352983120313CE
:100248002708A80028309222653083120313A800DB
:100258002508C3213529773083120313A800250800
:10026800C321831203132708A4002610851A261415
:10027800A610051AA61426030319A70A8312031346
:100288002608043A0319A703831203132611261814
:100298002615A611A618A615240827060319C2288C
:1002A8009D30A8002708C321C228FF00023083160A
:1002B800031381008312031381017D30831203131A
:1002C8000102031C6129FF0B5E2908008312031336
:1002D800A800073083168100273083120313010713
:1002E800A9008312031329080106031D7529831227
:1002F8000313A80B70290800F8308316031387002E
:100308008312870103179E018316031385160516AA
:1003180081139516151683120317151783160313E1
:1003280006170800831203171E109E1003130514E6
:1003380083160510851483123210080083160313E0
:1003480096148B158B17080083120313AF00051042
:100358000A30B00083120313B0080319C2291230FF
:10036800B10083120313B10BB52900000314AF0CBD
:10037800031C051003180514B003AE2908008312E6
:100388000313A900AA01831203132A082807392096
:1003980083120313AB00AB080319912A83120313CA
:1003A8002B08253A031D892AAA0A2A082807392072
:1003B80083120313AB002B08643A0319F029113A8E
:1003C8000319012A173A0319692A013A03197E2ADF
:1003D800463A0319832A862A83120313A91FF72989
:1003E8002D30A821F9292030A82180308312031349
:1003F8002902031C012AA909A90A8312031329083F
:10040800B000B1010830AF0083120313B00DB10D75
:1004180064303102031C152A643083120313B102BD
:10042800031483120313AD0DAF0B082A30302D07C8
:10043800A821831203132908B000AE010830AF00C9
:1004480083120313B00DAE0D64302E02031C302A44
:10045800643083120313AE0283120313AF0B242AF2
:100468002E08B000B1010830AF0083120313B00D9D
:10047800B10D0A303102031C462A0A3083120313D5
:10048800B102031483120313AD0DAF0B392A3030B8
:100498002D07A821831203132E08B000AD010830E0
:1004A800AF0083120313B00DAD0D0A302D02031CEB
:1004B800612A0A3083120313AD0283120313AF0BB0
:1004C800552A30302D07A8218D2A83120313AC0139
:1004D8000830831203132C0203188D2AA91F772AC8
:1004E8003130A821792A3030A82183120313A90DAD
:1004F800AC0A6C2A831203132908A8218D2A2530F7
:10050800A8218D2A2130A8218D2A831203132B08B4
:10051800A82183120313AA0AC72908008312031308
:10052800A900290803178D0083168C13831203135F
:10053800280803178C0083160C1555308D00AA3037
:100548008D008C14831203130D1EA62A831603171D
:100558008C100C11831203130D120800831203135D
:10056800A800280803178D0083168C130C14831217
:100578000C080313A900831603170C108312031326
:040588002908080036
:02400E00D400DC
:00000001FF
