:02000000462890
:10000800F000030E83120313A0000A08A1008A015E
:100018000B1C26282D10851A2D14AD10051AAD14A9
:100028002D030319AE0A831203132D08043A03198A
:10003800AE03831203132D112D182D15AD11AD1814
:10004800AD150B108312031321088A00200E8300BC
:10005800F00E700E090083120313AA008A012A0801
:100068000F39820750346F34733469347434693407
:100078006F346E343A342034253464340D340A3401
:100088000034003483120313AD01AE01A2016320D2
:100098006E2083160313961616168B158B1783126C
:1000A80003132E08220603196028A3012E08A9208D
:1000B800831203132E08A20064309320532883125E
:1000C80003179E01831603138516051681139516CB
:1000D80015160800831203171E109E10031305142B
:1000E800831605108514080083120313AA0005104F
:1000F8000A30AB0083120313AB080319922812309D
:10010800AC0083120313AC0B852800000314AA0C5F
:10011800031C051003180514AB037E28080083127E
:100128000313A300073083168100273083120313BB
:100138000107A4008312031324080106031D9E2847
:1001480083120313A30B9928080083120313A40036
:10015800A50183120313250823072F2083120313F5
:10016800A600A60803197729831203132608253A3F
:10017800031D6F29A50A250823072F2083120313BF
:10018800A6002608643A0319D628113A0319E72865
:10019800173A03194F29013A03196429463A0319F2
:1001A80069296C2983120313A41FDD282D307820B8
:1001B800DF28203078208030831203132402031CA8
:1001C800E728A409A40A831203132408AB00AC018E
:1001D8000830AA0083120313AB0DAC0D64302C0257
:1001E800031CFB28643083120313AC02031483122C
:1001F8000313A80DAA0BEE283030280778208312A5
:1002080003132408AB00A9010830AA0083120313C2
:10021800AB0DA90D64302902031C16296430831222
:100228000313A90283120313AA0B0A292908AB0096
:10023800AC010830AA0083120313AB0DAC0D0A30D1
:100248002C02031C2C290A3083120313AC0203145A
:1002580083120313A80DAA0B1F2930302807782012
:10026800831203132908AB00A8010830AA008312DF
:100278000313AB0DA80D0A302802031C47290A30C6
:1002880083120313A80283120313AA0B3B293030ED
:1002980028077820732983120313A70108308312D3
:1002A8000313270203187329A41F5D29313078200E
:1002B8005F293030782083120313A40DA70A52292E
:1002C8008312031324087820732925307820732992
:1002D800213078207329831203132608782083128B
:0802E8000313A50AAD2808006C
:02400E00D400DC
:00000001FF
