:10000000182883120313AB008A012B080F398207CB
:1000100050346F3473346934743469346F346E34EB
:100020003A342034253464340D340A340034003436
:100030005320023083120313A00020088700A1017F
:10004000A201A3016120831203132110851A211438
:10005000A110051AA114210B3228A20AA00C20110C
:1000600003182015831203132108043A031D3D28A9
:10007000A203031020190314A00D831203132111EE
:1000800021182115A111A118A11522082306031971
:100090004C28A4012208B720831203132208A300CE
:1000A000200887002328831203179E018316031359
:1000B000851605168113951615160710871007115A
:1000C0000800831203171E109E10031305148316D5
:1000D00005108514080083120313AB0005100A30C5
:1000E000AC0083120313AC08031985281230AD004D
:1000F00083120313AD0B782800000314AB0C031C10
:10010000051003180514AC037128080083120313AB
:10011000851886281C30FF00FF0B8C2800009028D3
:100120000830FF00FF080319A228031083120313ED
:1001300085180314FF0C1230FF00FF0B9D280000F0
:10014000FF0392287F080800FF000730831603137F
:1001500081002730831203130107FF007F088312F9
:1001600003130106031DAE28FF0BA9280800831204
:100170000313A500A60183120313260824070120F8
:1001800083120313A700A7080319852983120313F9
:100190002708253A031D7D29A60A260824070120E1
:1001A00083120313A7002708643A0319E428113ABD
:1001B0000319F528173A03195D29013A0319722921
:1001C000463A031977297A2983120313A51FEB28CE
:1001D0002D306B20ED2820306B20803083120313EC
:1001E0002502031CF528A509A50A83120313250877
:1001F000AC00AD010830AB0083120313AC0DAD0DA4
:1002000064302D02031C0929643083120313AD02EC
:10021000031483120313A90DAB0BFC2830302907FC
:100220006B20831203132508AC00AA010830AB0031
:1002300083120313AC0DAA0D64302A02031C242977
:10024000643083120313AA0283120313AB0B182921
:100250002A08AC00AD010830AB0083120313AC0DCB
:10026000AD0D0A302D02031C3A290A308312031304
:10027000AD02031483120313A90DAB0B2D293030EB
:1002800029076B20831203132A08AC00A901083048
:10029000AB0083120313AC0DA90D0A302902031C15
:1002A00055290A3083120313A90283120313AB0BDF
:1002B0004929303029076B20812983120313A801B3
:1002C000083083120313280203188129A51F6B2904
:1002D00031306B206D2930306B2083120313A50D54
:1002E000A80A60298312031325086B208129253071
:1002F0006B20812921306B20812983120313270869
:0C0300006B2083120313A60ABB28080020
:02400E00D400DC
:00000001FF
