:02000000462890
:10000800F000030E83120313A0000A08A1008A015E
:100018000B1C26282D10851A2D14AD10051AAD14A9
:100028002D030319AE0A831203132D08043A03198A
:10003800AE03831203132D112D182D15AD11AD1814
:10004800AD150B108312031321088A00200E8300BC
:10005800F00E700E090083120313AA008A012A0801
:100068000F39820750346F34733469347434693407
:100078006F346E343A342034253464340D340A3401
:100088000034003483120313AD01AE01A2016120D4
:100098006C2083160313961616168B158B1783126E
:1000A80003132E08220603195328A3012E08A320A0
:1000B800831203132E08A2005328831203179E01EC
:1000C8008316031385160516811395161516080051
:1000D8008316031398161812181383129817831689
:1000E80018119B1519309900831218161813031745
:1000F8009F118316031386128617051485140800AA
:1001080083120313AA00831203130C1E8728831279
:1001180003132A0899000800FF0007308316031309
:1001280081002730831203130107FF007F08831221
:1001380003130106031D9A28FF0B95280800831254
:100148000313A400A50183120313250823072F20F6
:1001580083120313A600A608031971298312031337
:100168002608253A031D6929A50A250823072F20F3
:1001780083120313A6002608643A0319D028113AFB
:100188000319E128173A03194929013A03195E2985
:10019800463A03196329662983120313A41FD72833
:1001A8002D308420D92820308420803083120313F6
:1001B8002402031CE128A409A40A831203132408B7
:1001C800AB00AC010830AA0083120313AB0DAC0DD1
:1001D80064302C02031CF528643083120313AC022C
:1001E800031483120313A80DAA0BE828303028073C
:1001F8008420831203132408AB00A9010830AA0045
:1002080083120313AB0DA90D64302902031C1029B6
:10021800643083120313A90283120313AA0B04295F
:100228002908AB00AC010830AA0083120313AB0DF8
:10023800AC0D0A302C02031C26290A308312031342
:10024800AC02031483120313A80DAA0B192930302A
:1002580028078420831203132908AB00A80108305B
:10026800AA0083120313AB0DA80D0A302802031C41
:1002780041290A3083120313A80283120313AA0B1D
:1002880035293030280784206D2983120313A701EC
:10029800083083120313270203186D29A41F572956
:1002A8003130842059293030842083120313A40D5F
:1002B800A70A4C2983120313240884206D292530AA
:1002C80084206D29213084206D2983120313260888
:0C02D800842083120313A50AA728080045
:02400E00D400DC
:00000001FF
