:10000000CA28831203132E082B02B10003181C28E0
:10001000B109B10A2B08B0002E08AB003008AE00C1
:100020002A08B0002D08AA003008AD002908B00049
:100030002C08A9003008AC001230831203133102DF
:100040000318C62883120313AE080319C6288312A7
:100050000313AF012A08B0002A082D06B200AA1720
:10006000AD17083083120313B102031C3F2883121B
:1000700003132C08AF002D08AC00AD01312883120A
:100080000313B10703194C28031083120313AD0C9B
:10009000AC0CAF0CB10B442883120313B21F93288E
:1000A0002C08A9022D08031C2D0FAA0203185F2893
:1000B000AA09A909A90A0319AA0A8030B00683125D
:1000C0000313AF09AF0A03196928A903290A031901
:1000D000AA03033083120313B10083120313AA0887
:1000E000031D80282908AA002F08A900AF010830A5
:1000F000AB02031CB42883120313B10B6D28B42880
:1001000083120313AA1B8B280310AF0DA90DAA0D90
:10011000AB0B8028B42883120313331FC228AF1FF0
:10012000C228AF01AB28831203132C08A9072D089E
:1001300003182D0FAA07031CA52883120313AA0C6A
:10014000A90CAF0CAB0A0319B82883120313331F91
:10015000C228AF1FC22883120313A90FC228AA0FF7
:10016000C228031429109D2883120313AB01BD2854
:1001700083120313B314FF30AB0083120313A901DE
:100180008030AA0083120313B01FAA138312031333
:1001900029080800831203132008A9002108AA00D7
:1001A0002208AB002308AC002408AD002508AE00EF
:1001B0000120831203132908A6002A08A7002B0890
:0601C000A8006300CA283C
:02400E00D400DC
:00000001FF
