:10000000F829831203132708B2002A06B300280830
:10001000031D2B080319542883120313A8077E30ED
:10002000031C1628A802031C1B285828831203133C
:10003000A802031C5128831203132608B100B2172B
:10004000AA17A601A7011030B40083120313B20C43
:10005000B10C031C31282908A6072A0803182A0F07
:10006000A70783120313A70CA60CB40B2528A71B04
:100070004228A60DA70DA8080319512883120313BF
:10008000A803320D83120313351F6228031C622854
:10009000A60F6228A70F6228A70CA60CA80F62283B
:1000A000582883120313351583120313A8015D2802
:1000B00083120313B514FF30A80083120313A601A3
:1000C0008030A70083120313B31FA71383120313F7
:1000D00026080800831203132B082802B300031814
:1000E0008528B309B30A2808B2002B08A8003208F3
:1000F000AB002708B2002A08A7003208AA00260889
:10010000B2002908A6003208A90012308312031396
:10011000330203182F2983120313AB0803192F2965
:1001200083120313B1012708B20027082A06B4007E
:10013000A717AA17083083120313B302031CA828B9
:10014000831203132908B1002A08A900AA019A28DA
:1001500083120313B3070319B52803108312031383
:10016000AA0CA90CB10CB30BAD2883120313B41F56
:10017000FC282908A6022A08031C2A0FA702031834
:10018000C828A709A609A60A0319A70A8030B2063B
:1001900083120313B109B10A0319D228A603260A50
:1001A0000319A703033083120313B300831203134D
:1001B000A708031DE9282608A7003108A600B101F9
:1001C0000830A802031C1D2983120313B30BD62881
:1001D0001D2983120313A71BF4280310B10DA60DCC
:1001E000A70DA80BE9281D2983120313351F2B29FE
:1001F000B11F2B29B1011429831203132908A60763
:100200002A0803182A0FA707031C0E2983120313B9
:10021000A70CA60CB10CA80A0319212983120313F9
:10022000351F2B29B11F2B2983120313A60F2B294E
:10023000A70F2B2903142610062983120313A801E4
:10024000262983120313B514FF30A8008312031369
:10025000A6018030A70083120313B21FA7138312D5
:1002600003132608080083120313A71BF129831226
:100270000313A8080319F429831203132808AC00F8
:100280003508AD0035177F30A8002608AE002708D6
:10029000AF002808B000271F9429A730A900B83064
:1002A000AA007730AB000120793083120313A90034
:1002B0006130AA007A30AB006A20831203132E0843
:1002C000A9002F08AA003008AB00012031308312AA
:1002D0000313A900F530AA007C30AB006A2083121A
:1002E00003132E08A9002F08AA003008AB00012034
:1002F000C13083120313A9005430AA007E30AB0032
:100300006A20831203132E08A9002F08AA003008C0
:10031000AB000120223083120313A9003830AA0059
:100320007D30AB006A20DC29363083120313A9002C
:100330009930AA007930AB000120373083120313C3
:10034000A9000530AA007C30AB006A208312031399
:100350002E08A9002F08AA003008AB000120C930E0
:1003600083120313A900CD30AA007D30AB006A20B0
:10037000831203132E08A9002F08AA003008AB002F
:100380000120023083120313A9007D30AA007E30C1
:10039000AB006A20831203132E08A9002F08AA00BD
:1003A0003008AB000120BD3083120313A9001A30BE
:1003B000AA007D30AB006A20831203132C18E729B2
:1003C0000530A9003530AA007F30AB0001207F3016
:1003D00083120313AC072C0CA8002D1BF429351332
:1003E000F42983120313B516831203132608080099
:1003F000831203132008A6002108A7002208A800E2
:100400003321831203132608A3002708A400280819
:06041000A5006300F829BD
:02400E00D400DC
:00000001FF
